:020000040000FA
:08000000803102288731EF2F47
:1007140016302100970008007030210099009801DC
:10072400220096010800FF30280096009501200061
:1007340093100430280097000800FF3028009D0023
:100744009C0120009311043028009E0008000C3006
:10075400260093009101920125001E08CF3910381C
:100764009E0008000C3026009A009801990125008B
:100774001E083F3980389E000800FE0012001E004B
:100784000130FE020030FF3B7F087E04031DC02BB6
:100794000034023022008C008D01213021008C00B5
:1007A400FF308D00FE3023008D008C0124008D016C
:1007B4008C012100951722009D019E0108008331C0
:1007C400CB23833183318E23833183318A23833155
:1007D40083319F2383318331B42383318331952340
:1007E40083318331A923833108007108F300700831
:1007F400F200F336F20CF336F20C72082600910084
:1008040070080339F2000430F235890B062C130802
:10081400CF397204930008007108F3007008F200E5
:10082400F336F20CF336F20C7208260098007008C6
:100834000339F2000430F235890B1D2C1A08CF3924
:1008440072049A000800F401F501282C701C2B2C6A
:100854002C2C302C7208F4077308F53D0130F23566
:10086400F30D890B312C0130F136F00C890B362C49
:1008740070087104031D3F2C402C282C412C750852
:10088400F1007408F000462C08000030FB00003032
:10089400FA000030F9000030F800502C701C532C82
:1008A400542C5D2C7408F8077508F93D7608FA3D58
:1008B4007708FB3D5D2C0130F435F50DF60DF70D91
:1008C400890B5E2C0130F336F20CF10CF00C890B21
:1008D400652C7308720471047004031D722C732C4C
:1008E400502C742C7B08F3007A08F2007908F1008C
:1008F4007808F0007D2C0800B8308400883085002A
:1009040000082000A400A501A601A7012708F30000
:100914002608F2002508F1002408F0002308F70057
:100924002208F6002108F5002008F4008431472449
:10093400843173082000AD007208AC007108AB006C
:100944007008AA002A08A4002B08A5002C08A600F9
:100954002D08A7000730A736A60CA50CA40C890BFC
:10096400AD2C2508AF002408AE00B63084008830D2
:100974008500003FA400013FA5002F082502031DA8
:10098400C52C2E082402031CC82CC92CDF2CB6301D
:10099400840088308500003FA400013FA5002E0993
:1009A400A6002F09A700A60A0319A70A24082607E8
:1009B400A0002508273DA100FC2CB6308400883017
:1009C4008500003FA400013FA5002E09A6002F09C1
:1009D400A700A60A0319A70A24082607A8002508C1
:1009E400273DA9002808A03EA0000530293DA1000C
:1009F400FC2CFC2C0800760803392000A0002008F9
:100A0400FB007708A1007608A000210DA10CA00C22
:100A1400210DA10CA00C2008FC002108FD000030D1
:100A24007D02B53003197C020318192D1B2D0130EA
:100A34001C2D0030A0007808860087012008810062
:100A440000307D02B53003197C02031C2A2D2B2DA6
:100A54002F2DB430FC020030FD3B00307D025B30B2
:100A640003197C02031C372D382D462D7C09A00068
:100A74007D09A100A00A0319A10A2008B43EFC00C4
:100A84000030213DFD00462D7D08A1007C08A0001A
:100A9400A035A10D2008023EA2000030213DA30094
:100AA400BA30A4002030A5002208240786002308B9
:100AB400253D87007D08A7007C08A600A635A70D64
:100AC400BA30A8002030A900260828078400270887
:100AD400293D8500003FAA00013FAB00AA09AB09EC
:100AE400AA0A0319AB0A403F2A07F900413F2B3DEC
:100AF400FA007D08A1007C08A000A035A10DBA3041
:100B0400A2002030A3002008220786002108233DEC
:100B140087007A08A5007908A400A536A40CA53698
:100B2400A40C2408F0002508F1007B08A600A70106
:100B34002608F2002708F300843125248431403F3D
:100B44007007F600413F713DF700A82D08000034FE
:100B5400003478340434EF34083466340D34DC342F
:100B6400113450341634C2341A3433341F34A1349B
:100B740023340C34283474342C34D93430343A3497
:100B8400353496343934EF343D344234423490347D
:100B94004634D9344A341C344F34583453348F34A3
:100BA4005734BE345B34E6345F3407346434203461
:100BB400683431346C3439347034393474342F3407
:100BC40078341C347C3400348034DA348334A934EB
:100BD40087346D348B3427348F34D634923479345B
:100BE400963411349A349C349D341B34A1348E349D
:100BF400A434F334A7344C34AB349734AE34D53402
:100C0400B1340534B5342734B8343A34BB343F34C2
:100C1400BE343534C1341B34C434F334C634BB3429
:100C2400C9347334CC341C34CF34B434D1343C346C
:100C3400D434B334D6341A34D9346F34DB34B434C2
:100C4400DD34E734DF340934E2341934E43417345E
:100C5400E6340434E834DE34E934A634EB345C346A
:100C6400ED34FF34EE349034F0340E34F23478340E
:100C7400F334D034F4341534F6344734F73465346B
:100C8400F8347034F9346834FA344C34FB341C349A
:100C9400FC34D934FC348234FD341834FE349934B1
:100CA400FE340734FF346034FF34A634FF34D834C0
:100CB400FF34F634FF34FF34FF348331E1238631CB
:100CC400B630840088308500003F2000B900013F21
:100CD400BA00BD01BE01B801B80A702E20003D085B
:100CE400A0003E08A100890D893B8909A200A30048
:100CF40084317E24863120002108BA002008B900FE
:100D04003A08F7003908F6003B30B0003008F80024
:100D140087312627863177082000B3007608B20091
:100D24003B080319962E972E9B2E22008C149F2E7F
:100D34009F2E22008C109F2E9F2E20003308B1007E
:100D44003208B0000630B136B00C890BA52E30083D
:100D5400F0003108F1008331F723863120003A088E
:100D6400F7003908F6003C30B0003008F800843150
:100D7400FD24863177082000B5007608B4003C08CD
:100D84000319C52EC62ECA2E22000C15CE2ECE2E29
:100D940022000C11CE2ECE2E20003508B1003408CE
:100DA400B0000630B136B00C890BD42E3008F000F8
:100DB4003108F10084310E24863120003808031DE7
:100DC400E42EE52EEA2EFF30B600FF30B700EE2EFB
:100DD4000130B6000030B7003608BD073708BE3D05
:100DE4003E08803AB00083303002031DFB2E713080
:100DF4003D02031CFE2EFF2E022F2000B801152FEA
:100E040020003E08803AB00080303002031D0C2FD1
:100E140001303D0203180F2F102F152F2000B801A9
:100E2400B80A152F152F02302000B1000430B0008D
:100E3400BA30890B1B2FB00B1B2FB10B1B2F0000DB
:100E4400702E702E80310228760803392000A0000D
:100E54002008AA007708A1007608A000210DA10CA3
:100E6400A00C210DA10CA00C2008AC002108AD00A1
:100E7400AB017708803AA00081302002031D442F83
:100E840069307602031C472F482F5A2F7708803A7F
:100E94002000A00090302002031D522FE030760283
:100EA4000318552F562F5A2F2000AB01AB0A5A2F87
:100EB40020002B08031D5F2F612F0130622F0030AB
:100EC400A0007808860087012008810000302D02E8
:100ED400B53003192C02031C702F712F752FB430F9
:100EE400AC020030AD3B00302D025B3003192C0204
:100EF400031C7D2F7E2F8C2F2C09A0002D09A1000F
:100F0400A00A0319A10A2008B43EAC000030213D18
:100F1400AD008C2F2D0885002C0884008435850DA8
:100F2400003084078830853D003FA000013FA100C8
:100F34002D08A3002C08A200A235A30D2208023E0E
:100F4400A4000030233DA50000302407840088302D
:100F5400253D8500003FA600013FA700A609A7097B
:100F6400A60A0319A70A20082607A8002108273D76
:100F7400A9002D0885002C0884008435850D0030D7
:100F840084078830853D003FA000013FA100290867
:100F9400A3002808A200A336A20CA336A20C2208A0
:100FA400F0002308F1002A08A400A5012408F20097
:100FB4002508F30084312524873170092000A60018
:100FC4007109A700A60A0319A70A20082607F60034
:100FD4002108273DF700EE2F0800A9308400853052
:100FE4008500BA308600203087000030FF00B6301C
:100FF4008331BF238731200086315F2EFF34FF34D5
:10100400F634FF34D834FF34A634FF346034FF346C
:101014000734FF349934FE341834FE348234FD34FA
:10102400D934FC341C34FC344C34FB346834FA3486
:101034007034F9346534F8344734F7341534F634FD
:10104400D034F4347834F3340E34F2349034F0344D
:10105400FF34EE345C34ED34A634EB34DE34E9345E
:101064000434E8341734E6341934E4340934E2340B
:10107400E734DF34B434DD346F34DB341A34D93438
:10108400B334D6343C34D434B434D1341C34CF34B3
:101094007334CC34BB34C934F334C6341B34C43451
:1010A4003534C1343F34BE343A34BB342734B834D5
:1010B4000534B534D534B1349734AE344C34AB3410
:1010C400F334A7348E34A4341B34A1349C349D34BB
:1010D40011349A3479349634D634923427348F3494
:1010E4006D348B34A9348734DA3483340034803457
:1010F4001C347C342F3478343934743439347034B7
:1011040031346C342034683407346434E6345F3466
:10111400BE345B348F345734583453341C344F3416
:10112400D9344A349034463442344234EF343D3472
:10113400963439343A343534D934303474342C3424
:101144000C342834A134233433341F34C2341A34D5
:1011540050341634DC34113466340D34EF3408342E
:0E1164007834043400340034D034023478344B
:020000040001F9
:04000E00C4FFFFDE4E
:00000001FF
