:020000040000FA
:04000000803115280E
:100008007E1480318B1D09280A2813280B1C0D2803
:100018000E281328853157258031132813287E1080
:10002800090080311728C730840081308500BA3034
:100038008600203087000030FF00B6308531122559
:1000480080317E102000803129288431FC248031C1
:100058005430840085308500003F2000BD00013FFA
:10006800BE00BB01BC01B801B80A3A28DE30200046
:100078003D06031D43283E03031D43284428492801
:10008800DE30BD000130BE0049283B08A0003C0816
:10009800A100890D893B8909A200A3008331DF23D0
:1000A800803120002108BE002008BD003E08F7006E
:1000B8003D08F6003930B0003008F8008031FE20E5
:1000C800803177082000B3007608B2003908031998
:1000D8006E286F28732822008C147728772822002E
:1000E8008C107728772820003308B1003208B00038
:1000F8000630B136B00C890B7D283008F000310885
:10010800F1008431E524803120003E08F7003D08E5
:10011800F6003A30B0003008F800833133238031DC
:1001280077082000B5007608B4003A0803199D281E
:100138009E28A22822000C15A628A62822000C1109
:10014800A628A62820003508B1003408B0000630DB
:10015800B136B00C890BAC283008F0003108F1003A
:100168008431CE24803120003808031DBC28BD28E6
:10017800C228FF30B600FF30B700C6280130B600ED
:100188000030B7003608BB073708BC3D3C08803A4A
:10019800B00083303002031DD32871303B02031CAA
:1001A800D628D728DA282000B801ED2820003C08F6
:1001B800803AB00080303002031DE42801303B0251
:1001C8000318E728E828ED282000B801B80AED2828
:1001D800ED2802302000B1000430B000BA30890B9D
:1001E800F328B00BF328B10BF32800003A283A287B
:1001F80080311528760803392000A0002008AA00BD
:100208007708A1007608A000210DA10CA00C210DF3
:10021800A10CA00C2008AC002108AD00AB017708A8
:10022800803AA00081302002031D1C296930760223
:10023800031C1F29202932297708803A2000A000B2
:1002480090302002031D2A29E030760203182D2958
:100258002E2932292000AB01AB0A322920002B08B5
:10026800031D3729392901303A290030A0007808C0
:10027800860087012008810000302D02B53003195F
:100288002C02031C482949294D29B430AC020030FE
:10029800AD3B00302D025B3003192C02031C55299D
:1002A800562964292C09A0002D09A100A00A0319C8
:1002B800A10A2008B43EAC000030213DAD006429FD
:1002C8002D0885002C0884008435850D7D30840731
:1002D8008230853D003FA000013FA1002D08A3000A
:1002E8002C08A200A235A30D2208023EA40000306B
:1002F800233DA5007D30240784008230253D8500FC
:10030800003FA600013FA700A609A709A60A0319EE
:10031800A70A20082607A8002108273DA9002D08BC
:1003280085002C0884008435850D7D308407823053
:10033800853D003FA000013FA1002908A30028082F
:10034800A200A336A20CA336A20C2208F0002308B0
:10035800F1002A08A400A5012408F2002508F300EA
:1003680084319524803170092000A6007109A70006
:10037800A60A0319A70A20082607F6002108273D20
:10038800F700C62908000034003478340434EF3408
:10039800083466340D34DC34113450341634C23425
:1003A8001A3433341F34A13423340C3428347434CD
:1003B8002C34D93430343A34353496343934EF3433
:1003C8003D344234423490344634D9344A341C34AF
:1003D8004F34583453348F345734BE345B34E63496
:1003E8005F34073464342034683431346C3439343D
:1003F8007034393474342F3478341C347C340034F9
:100408008034DA348334A93487346D348B34273418
:100418008F34D63492347934963411349A349C34E7
:100428009D341B34A1348E34A434F334A7344C34B3
:10043800AB349734AE34D534B1340534B5342734BD
:10044800B8343A34BB343F34BE343534C1341B3449
:10045800C434F334C634BB34C9347334CC341C3498
:10046800CF34B434D1343C34D434B334D6341A34DD
:10047800D9346F34DB34B434DD34E734DF34093451
:10048800E2341934E4341734E6340434E834DE341E
:10049800E934A634EB345C34ED34FF34EE34903474
:1004A800F0340E34F2347834F334D034F434153470
:1004B800F6344734F7346534F8347034F934683432
:1004C800FA344C34FB341C34FC34D934FC348234D4
:1004D800FD341834FE349934FE340734FF34603464
:1004E800FF34A634FF34D834FF34F634FF34FF34F5
:1004F800FF34FF34FF34F634FF34D834FF34A634E5
:10050800FF346034FF340734FF349934FE34183430
:10051800FE348234FD34D934FC341C34FC344C347D
:10052800FB346834FA347034F9346534F8344734B9
:10053800F7341534F634D034F4347834F3340E34D4
:10054800F2349034F034FF34EE345C34ED34A634B5
:10055800EB34DE34E9340434E8341734E63419343F
:10056800E4340934E234E734DF34B434DD346F344E
:10057800DB341A34D934B334D6343C34D434B434B8
:10058800D1341C34CF347334CC34BB34C934F33451
:10059800C6341B34C4343534C1343F34BE343A34E1
:1005A800BB342734B8340534B534D534B134973432
:1005B800AE344C34AB34F334A7348E34A4341B3407
:1005C800A1349C349D3411349A3479349634D63419
:1005D800923427348F346D348B34A9348734DA3429
:1005E8008334003480341C347C342F3478343934E8
:1005F80074343934703431346C342034683407340A
:100608006434E6345F34BE345B348F345734583442
:1006180053341C344F34D9344A3490344634423439
:100628004234EF343D34963439343A343534D9349D
:10063800303474342C340C342834A1342334333417
:100648001F34C2341A3450341634DC34113466344E
:100658000D34EF3408347834043400340034760828
:1006680003392000A0002008FB007708A1007608C5
:10067800A000210DA10CA00C210DA10CA00C20089C
:10068800FC002108FD0000307D02B53003197C0212
:1006980003184F2B512B0130522B0030A000780843
:1006A800860087012008810000307D02B5300319DB
:1006B8007C02031C602B612B652BB430FC020030DC
:1006C800FD3B00307D025B3003197C02031C6D2B5F
:1006D8006E2B7C2B7C09A0007D09A100A00A0319C0
:1006E800A10A2008B43EFC000030213DFD007C2B0F
:1006F8007D08A1007C08A000A035A10D2008023EBD
:10070800A2000030213DA300BA30A4002030A5008B
:100718002208240786002308253D87007D08A700B6
:100728007C08A600A635A70DBA30A8002030A9007D
:100738002608280784002708293D8500003FAA00CD
:10074800013FAB00AA09AB09AA0A0319AB0A403F4B
:100758002A07F900413F2B3DFA007D08A1007C08DB
:10076800A000A035A10DBA30A2002030A3002008B7
:10077800220786002108233D87007A08A50079080A
:10078800A400A536A40CA536A40C2408F00025085E
:10079800F1007B08A600A7012608F2002708F3004D
:1007A800843195248331403F7007F600413F713D05
:1007B800F700DE2B080056308400853085000008DD
:1007C8002000A400A501A601A7012708F300260818
:1007D800F2002508F1002408F0002308F700220899
:1007E800F6002108F5002008F40084315E248331E6
:1007F80073082000AD007208AC007108AB007008E7
:10080800AA002A08A4002B08A5002C08A6002D0879
:10081800A7000730A736A60CA50CA40C890B0E2C34
:100828002508AF002408AE005430840085308500C8
:10083800003FA400013FA5002F082502031D262C18
:100848002E082402031C292C2A2C402C5430840006
:1008580085308500003FA400013FA5002E09A600B1
:100868002F09A700A60A0319A70A24082607A0002B
:100878002508273DA1005D2C543084008530850073
:10088800003FA400013FA5002E09A6002F09A700DC
:10089800A60A0319A70A24082607A8002508273D41
:1008A800A9002808A03EA0000530293DA1005D2C24
:1008B8005D2C08000030FB000030FA000030F90021
:1008C8000030F800672C701C6A2C6B2C742C740890
:1008D800F8077508F93D7608FA3D7708FB3D742C52
:1008E8000130F435F50DF60DF70D890B752C013037
:1008F800F336F20CF10CF00C890B7C2C73087204A3
:1009080071047004031D892C8A2C672C8B2C7B089E
:10091800F3007A08F2007908F1007808F000942CC6
:100928000800F401F501982C701C9B2C9C2CA02C21
:100938007208F4077308F53D0130F235F30D890BA1
:10094800A12C0130F136F00C890BA62C700871042B
:10095800031DAF2CB02C982CB12C7508F10074082D
:10096800F000B62C080022008C018D01E130210036
:100978008C00FF308D00FE3023008D001E308C006F
:1009880024008D018C012100951722009D019E01F4
:100998008B1508007108F3007008F200F336F20CAA
:1009A800F336F20C72082600980070080339F2003A
:1009B8000430F235890BDD2C1A08CF3972049A00FD
:1009C80008007108F3007008F200F336F20CF336F1
:1009D800F20C72082600910070080339F200043006
:1009E800F235890BF42C1308CF39720493000800F0
:1009F8008431B724843185314925843185315025A6
:100A0800843185313525843185311E258431853100
:100A18003F25843185312A2584310800FE001200E3
:100A28001E000130FE020030FF3B7F087E04031DDC
:100A3800132D00343C3026009A003F30980099016D
:100A480025001E083F3940389E0008000C3026005B
:100A580093009101920125001E08CF3910389E009D
:100A680008003F3028009D009C01200093110430AD
:100A780028009E0008003F302800960095012000BD
:100A88009310043028009700080070302100990066
:100A980098012200960108001630210097000800EE
:080AA800D03402347834080058
:020000040001F9
:04000E00C4FFFFDE4E
:00000001FF
