:020000040000FA
:08000000803102288731EF2F47
:1005D2001630210097000800703021009900980120
:1005E200220096010800653028009600950120003F
:1005F20093100530280097000800653028009D0000
:100602009C0120009311053028009E0008000C3048
:10061200260093009101920125001E08CF3910385F
:100622009E0008000C3026009A00980199012500CE
:100632001E083F3980389E000800FE0012001E008E
:100642000130FE020030FF3B7F087E04031D1F2B9A
:100652000034023022008C008D01213021008C00F8
:10066200FF308D00FE3023008D008C0124008D01AF
:100672008C012100951722009D019E010800833103
:100682002A2383318231ED2283318231E92283317F
:100692008231FE2283318331132383318231F4226A
:1006A200833183310823833108007508F700740809
:1006B200F600F736F60CF736F60C760826009100AF
:1006C20074080339F6000430F635890B652B1308DC
:1006D200CF397604930008007508F7007408F60015
:1006E200F736F60CF736F60C7608260098007408F2
:1006F2000339F6000430F635890B7C2B1A08CF3902
:1007020076049A0008007108803AF2008030720282
:10071200031D8D2B013070020318902B912B9D2B02
:100722007009F2007109F300F20A0319F30A720860
:10073200F0007308F1009E2B9E2B0800F401F501D6
:10074200A22B701CA52BA62BAA2B7208F4077308E8
:10075200F53D0130F235F30D890BAB2B0130F1364B
:10076200F00C890BB02B70087104031DB92BBA2B46
:10077200A22BBB2B7508F1007408F000C02B0800F7
:100782000030FB000030FA000030F9000030F800C1
:10079200CA2B701CCD2BCE2BD72B7408F8077508EB
:1007A200F93D7608FA3D7708FB3DD72B0130F43549
:1007B200F50DF60DF70D890BD82B0130F336F20C3F
:1007C200F10CF00C890BDF2B7308720471047004B6
:1007D200031DEC2BED2BCA2BEE2B7B08F3007A08C2
:1007E200F2007908F1007808F000F72B0800B83021
:1007F20084008830850000082000A400A501A6011D
:10080200A7012708F3002608F2002508F1002408B2
:10081200F0002308F7002208F6002108F50020085E
:10082200F4008331C123833173082000AD007208C4
:10083200AC007108AB007008AA002A08A4002B08BB
:10084200A5002C08A6002D08A7000730A736A60C85
:10085200A50CA40C890B272C2508AF002408AE0098
:10086200B630840088308500003FA400013FA50017
:100872002F082502031D3F2C2E082402031C422CA4
:10088200432C592CB630840088308500003FA400E8
:10089200013FA5002E09A6002F09A700A60A0319E9
:1008A200A70A24082607A0002508273DA100762CC8
:1008B200B630840088308500003FA400013FA500C7
:1008C2002E09A6002F09A700A60A0319A70A2408C1
:1008D2002607A8002508273DA9002808A03EA00059
:1008E2000530293DA100762C762C08000034003416
:1008F20078340434EF34083466340D34DC34113483
:1009020050341634C2341A3433341F34A1342334ED
:100912000C34283474342C34D93430343A343534E9
:1009220096343934EF343D344234423490344634D0
:10093200D9344A341C344F34583453348F345734F6
:10094200BE345B34E6345F340734643420346834B4
:1009520031346C3439347034393474342F3478345B
:100962001C347C3400348034DA348334A934873440
:100972006D348B3427348F34D634923479349634B0
:1009820011349A349C349D341B34A1348E34A434F3
:10099200F334A7344C34AB349734AE34D534B13459
:1009A2000534B5342734B8343A34BB343F34BE341A
:1009B2003534C1341B34C434F334C634BB34C93483
:1009C2007334CC341C34CF34B434D1343C34D434C6
:1009D200B334D6341A34D9346F34DB34B434DD341E
:1009E200E734DF340934E2341934E4341734E634BA
:1009F2000434E834DE34E934A634EB345C34ED34C8
:100A0200FF34EE349034F0340E34F2347834F3346C
:100A1200D034F4341534F6344734F7346534F834CA
:100A22007034F9346834FA344C34FB341C34FC34FA
:100A3200D934FC348234FD341834FE349934FE3413
:100A42000734FF346034FF34A634FF34D834FF3423
:100A5200F634FF34FF34FF34833140238531B6301E
:100A6200840088308500003F2000BD00013FBE00A9
:100A7200BF01C001B801B80A3E2D20003F08A00006
:100A82004008A100890D893B8909A200A300833196
:100A9200F823853120002108BE002008BD003E0851
:100AA200F7003D08F6008631ED26853177082000F3
:100AB200BA007608B900BA1F5F2D602D632D22009F
:100AC2008C14662D22008C10662D20003A08F1004D
:100AD2003908F00083318423853170082000B30087
:100AE2007108B4000730B500340DB40CB30CB50B6B
:100AF200752D3308F4003408F5008331562385310F
:100B020020003E08F7003D08F6008531F8258531C2
:100B120077082000BC007608BB00BC1F912D922DE7
:100B2200962D22000C159A2D9A2D22000C119A2D29
:100B32009A2D20003C08F1003B08F0008331842309
:100B4200853170082000B3007108B4000730B50089
:100B5200340DB40CB30CB50BA92D3308F4003408D2
:100B6200F50083316D23853120003808031DBA2D2D
:100B7200BB2DC02DFF30B600FF30B700C42D0130B1
:100B8200B6000030B7003608BF073708C03D40083E
:100B9200803AB30083303302031DD12D71303F02FE
:100BA200031CD42DD52DD82D2000B801EB2D20000B
:100BB2004008803AB30080303302031DE22D013039
:100BC2003F020318E52DE62DEB2D2000B801B80AEF
:100BD200EB2DEB2D0D302000B300FB30890BEF2DF8
:100BE200B30BEF2D00323E2D3E2D803102287608C8
:100BF20003392000A0002008B0007708A100760881
:100C0200A000210DA10CA00C210DA10CA00C20080C
:100C1200B1002108B20000303202B53003193102AE
:100C2200031C142E152E192EB430B1020030B23B23
:100C3200003032025B3003193102031C212E222EB6
:100C4200302E3109A0003209A100A00A0319A10A1D
:100C52002008B43EB1000030213DB200302EAC017C
:100C6200AD0130080319362E372E8D2E310832048D
:100C7200031D3C2E3D2E562EBA30860020308700B2
:100C82004231BA30840020308500003FA000013F8D
:100C9200A100A009A109A00A0319A10A403F200747
:100CA200AC00413F213DAD008D2E3208A10031083C
:100CB200A000A035A10DBA30A2002030A300200868
:100CC200220786002108233D87003208A50031084B
:100CD200A400A435A50D2408FE3EA600FF30253D44
:100CE200A700BA30A8002030A900260828078400EF
:100CF2002708293D8500003FAA00013FAB00AA0951
:100D0200AB09AA0A0319AB0A403F2A07AC00413FCC
:100D12002B3DAD008D2E8D2E2D08A1002C08A0009C
:100D22000430A136A00C890B922EFF302005F00072
:100D32000F302105F1003008A200A3012208F200C1
:100D42002308F30083319F23853120003208A50058
:100D52003108A400A435A50DBA30A6002030A700A2
:100D62002408260786002508273D8700403FA80063
:100D7200413FA900A936A80CA936A80CFF302805C6
:100D8200AA003F302905AB0070082A07AE0071089F
:100D92002B3DAF007708803AA00082302002031D6D
:100DA200D42ED13076020318D72ED82EDE2E200074
:100DB2002F08F7002E08F600EC2E20002E09A000C6
:100DC2002F09A100A00A0319A10A2008F600210890
:100DD200F700EC2EEC2E0800760803392000A00064
:100DE2002008AE007708A1007608A000210DA10C12
:100DF200A00C210DA10CA00C2008AF002108B0000E
:100E020000303002B53003192F02031C092F0A2FBC
:100E12000E2FB430AF020030B03B003030025B30F6
:100E220003192F02031C162F172F252F2F09A0009D
:100E32003009A100A00A0319A10A2008B43EAF009C
:100E42000030213DB000252FAA01AB012E08031965
:100E52002B2F2C2F7F2F2F083004031D312F322FE1
:100E62004E2F0030840088308500003FA000013FF3
:100E7200A1000230840088308500003FA200013FBB
:100E8200A300A209A309A20A0319A30A20082207A0
:100E9200AA002108233DAB007F2F3008A1002F08B4
:100EA200A000A035A10D2008FE3EA200FF30213D8A
:100EB200A3000030220784008830233D8500003FD4
:100EC200A400013FA500300885002F088400843566
:100ED200850D003084078830853D003FA600013F24
:100EE200A700A609A709A60A0319A70A2408260724
:100EF200AA002508273DAB007F2F7F2F2B08A100DA
:100F02002A08A0000430A136A00C890B842FFF30E0
:100F12002005F0000F302105F1002E08A200A301E8
:100F22002208F2002308F30083319F2386317009DF
:100F32002000A4007109A500A40A0319A50A30081B
:100F420085002F0884008435850D003084078830A1
:100F5200853D003FA600013FA700A736A60CA73695
:100F6200A60CFF302605A8003F302705A90024085B
:100F72002807AC002508293DAD007708803AA0007B
:100F820081302002031DC72F69307602031CCA2F4D
:100F9200CB2FDA2F7708803A2000A000843020027D
:100FA200031DD52F38307602031CD82FD92FE02FFE
:100FB200DA2F20002D08F7002C08F600EE2F200073
:100FC2002C09A0002D09A100A00A0319A10A2008DA
:100FD200F6002108F700EE2FEE2F0800773084008C
:100FE20084308500BA308600203087000030FF0050
:100FF200B63083311E238731200085312D2DFF34F9
:10100200FF34F634FF34D834FF34A634FF3460346E
:10101200FF340734FF349934FE341834FE348234FA
:10102200FD34D934FC341C34FC344C34FB34683485
:10103200FA347034F9346534F8344734F7341534FB
:10104200F634D034F4347834F3340E34F234903449
:10105200F034FF34EE345C34ED34A634EB34DE3459
:10106200E9340434E8341734E6341934E434093406
:10107200E234E734DF34B434DD346F34DB341A3431
:10108200D934B334D6343C34D434B434D1341C34AB
:10109200CF347334CC34BB34C934F334C6341B3448
:1010A200C4343534C1343F34BE343A34BB342734CB
:1010B200B8340534B534D534B1349734AE344C3405
:1010C200AB34F334A7348E34A4341B34A1349C34AF
:1010D2009D3411349A3479349634D6349234273488
:1010E2008F346D348B34A9348734DA34833400344A
:1010F20080341C347C342F347834393474343934A9
:10110200703431346C342034683407346434E63457
:101112005F34BE345B348F345734583453341C3408
:101122004F34D9344A349034463442344234EF3462
:101132003D34963439343A343534D9343034743415
:101142002C340C342834A134233433341F34C234C5
:101152001A3450341634DC34113466340D34EF341E
:1011620008347834043400340034D034023478340F
:020000040001F9
:04000E0084FFFFDE8E
:00000001FF
