:020000040000FA
:08000000803102288731EF2F47
:10069200163021009700080070302100990098015F
:1006A200220096010800FF302800960095012000E4
:1006B20093100430280097000800FF3028009D00A6
:1006C2009C0120009311043028009E0008000C3089
:1006D200260093009101920125001E08CF3910389F
:1006E2009E0008000C3026009A009801990125000E
:1006F2001E083F3980389E000800FE0012001E00CE
:100702000130FE020030FF3B7F087E04031D7F2B79
:100712000034023022008C008D01213021008C0037
:10072200FF308D00FE3023008D008C0124008D01EE
:100732008C012100951722009D019E010800833142
:100742008A23833183314D2383318331492383319A
:1007520083315E2383318331732383318331542385
:10076200833183316823833108007508F7007408E8
:10077200F600F736F60CF736F60C760826009100EE
:1007820074080339F6000430F635890BC52B1308BB
:10079200CF397604930008007508F7007408F60054
:1007A200F736F60CF736F60C760826009800740831
:1007B2000339F6000430F635890BDC2B1A08CF39E1
:1007C20076049A0008007108803AF20080307202C2
:1007D200031DED2B013070020318F02BF12BFD2BC2
:1007E2007009F2007109F300F20A0319F30A7208A0
:1007F200F0007308F100FE2BFE2B0800F401F50156
:10080200022C701C052C062C0A2C7208F4077308A3
:10081200F53D0130F235F30D890B0B2C0130F13629
:10082200F00C890B102C70087104031D192C1A2C62
:10083200022C1B2C7508F1007408F000202C080013
:100842000030FB000030FA000030F9000030F80000
:100852002A2C701C2D2C2E2C372C7408F8077508A6
:10086200F93D7608FA3D7708FB3D372C0130F43527
:10087200F50DF60DF70D890B382C0130F336F20C1D
:10088200F10CF00C890B3F2C730872047104700494
:10089200031D4C2C4D2C2A2C4E2C7B08F3007A087D
:1008A200F2007908F1007808F000572C0800B830FF
:1008B20084008830850000082000A400A501A6015C
:1008C200A7012708F3002608F2002508F1002408F2
:1008D200F0002308F7002208F6002108F50020089E
:1008E200F40084312124843173082000AD007208A1
:1008F200AC007108AB007008AA002A08A4002B08FB
:10090200A5002C08A6002D08A7000730A736A60CC4
:10091200A50CA40C890B872C2508AF002408AE0077
:10092200B630840088308500003FA400013FA50056
:100932002F082502031D9F2C2E082402031CA22C23
:10094200A32CB92CB630840088308500003FA40067
:10095200013FA5002E09A6002F09A700A60A031928
:10096200A70A24082607A0002508273DA100D62CA7
:10097200B630840088308500003FA400013FA50006
:100982002E09A6002F09A700A60A0319A70A240800
:100992002607A8002508273DA9002808A03EA00098
:1009A2000530293DA100D62CD62C08000034003495
:1009B20078340434EF34083466340D34DC341134C2
:1009C20050341634C2341A3433341F34A13423342D
:1009D2000C34283474342C34D93430343A34353429
:1009E20096343934EF343D34423442349034463410
:1009F200D9344A341C344F34583453348F34573436
:100A0200BE345B34E6345F340734643420346834F3
:100A120031346C3439347034393474342F3478349A
:100A22001C347C3400348034DA348334A93487347F
:100A32006D348B3427348F34D634923479349634EF
:100A420011349A349C349D341B34A1348E34A43432
:100A5200F334A7344C34AB349734AE34D534B13498
:100A62000534B5342734B8343A34BB343F34BE3459
:100A72003534C1341B34C434F334C634BB34C934C2
:100A82007334CC341C34CF34B434D1343C34D43405
:100A9200B334D6341A34D9346F34DB34B434DD345D
:100AA200E734DF340934E2341934E4341734E634F9
:100AB2000434E834DE34E934A634EB345C34ED3407
:100AC200FF34EE349034F0340E34F2347834F334AC
:100AD200D034F4341534F6344734F7346534F8340A
:100AE2007034F9346834FA344C34FB341C34FC343A
:100AF200D934FC348234FD341834FE349934FE3453
:100B02000734FF346034FF34A634FF34D834FF3462
:100B1200F634FF34FF34FF348331A0238531B630FD
:100B2200840088308500003F2000BD00013FBE00E8
:100B3200BF01C001B801B80A9E2D20003F08A000E5
:100B42004008A100890D893B8909A200A3008431D4
:100B52005824853120002108BE002008BD003E082F
:100B6200F7003D08F60086315126853177082000CE
:100B7200BA007608B900BA1FBF2DC02DC42D2200BD
:100B82008C14C82DC82D22008C10C82DC82D200011
:100B92003A08F1003908F0008331E4238531700806
:100BA2002000B3007108B4000730B500340DB40C56
:100BB200B30CB50BD72D3308F4003408F50083319C
:100BC200B623853120003E08F7003D08F600873144
:100BD2001E27853177082000BC007608BB00BC1FA9
:100BE200F32DF42DF82D22000C15FC2DFC2D2200E6
:100BF2000C11FC2DFC2D20003C08F1003B08F000FC
:100C02008331E423853170082000B3007108B400F9
:100C12000730B500340DB40CB30CB50B0B2E3308F2
:100C2200F4003408F5008331CD23853120003808E3
:100C3200031D1C2E1D2E222EFF30B600FF30B700E2
:100C4200262E0130B6000030B7003608BF0737083D
:100C5200C03D4008803AB30083303302031D332E77
:100C620071303F02031C362E372E3A2E2000B80177
:100C72009E2D20004008803AB30080303302031DCD
:100C8200442E01303F020318472E482E9E2D20008D
:100C9200B801B80A9E2D9E2D9E2D9E2D80310228D0
:100CA200760803392000A0002008AC007708A100D4
:100CB2007608A000210DA10CA00C210DA10CA00C06
:100CC2002008AD002108AE0000302E02B530031915
:100CD2002D02031C6D2E6E2E722EB430AD0200302A
:100CE200AE3B00302E025B3003192D02031C7A2E1C
:100CF2007B2E882E2D09A0002E09A100A00A03191F
:100D0200A10A2008B43EAD000030213DAE002C08FF
:100D1200031D8C2E8D2E902EA801A901C02E2E0807
:100D2200A1002D08A000A035A10D2008FE3EA200C2
:100D3200FF30213DA3000030220784008830233D8C
:100D42008500003FA400013FA5002E0885002D0864
:100D520084008435850D003084078830853D003F4E
:100D6200A600013FA700A609A709A60A0319A70A18
:100D720024082607A8002508273DA900C02E290817
:100D8200A1002808A000A136A00CA136A00C2008C2
:100D9200F0002108F1002C08A200A3012208F200B1
:100DA2002308F3008331FF23863120002E088500BB
:100DB2002D0884008435850D003084078830853DF8
:100DC200003FA400013FA500A536A40C700824072B
:100DD200AA007108253DAB007708803AA000813057
:100DE2002002031DF62E69307602031CF92EFA2E1C
:100DF200092F7708803A2000A00090302002031DBE
:100E0200042FE0307602031C072F082F0F2F092F23
:100E120020002B08F7002A08F6001D2F20002A09BF
:100E2200A0002B09A100A00A0319A10A2008F600BC
:100E32002108F7001D2F1D2F080076080339200016
:100E4200A0002008B0007708A1007608A000210DBC
:100E5200A10CA00C210DA10CA00C2008B1002108AE
:100E6200B20000303202B53003193102031C3A2FAE
:100E72003B2F3F2FB430B1020030B23B0030320280
:100E82005B3003193102031C472F482F552F3109BC
:100E9200A0003209A100A00A0319A10A2008B43E49
:100EA200B1000030213DB2003008031D592F5A2FE6
:100EB2005D2FAC01AD01932F3208A1003108A000D3
:100EC200A035A10DBA30A2002030A30020082207CD
:100ED20086002108233D87003208A5003108A400BE
:100EE200A435A50D2408FE3EA600FF30253DA7002F
:100EF200BA30A8002030A900260828078400270855
:100F0200293D8500003FAA00013FAB00AA09AB09B9
:100F1200AA0A0319AB0A403F2A07AC00413F2B3D06
:100F2200AD00932F2D08A1002C08A000A136A00C23
:100F3200A136A00C2008F0002108F1003008A20020
:100F4200A3012208F2002308F3008331FF23873133
:100F520070092000A4007109A500A40A0319A50ABA
:100F62003208A7003108A600A635A70DBA30A8009E
:100F72002030A9002608280786002708293D870077
:100F8200403FAA00413FAB00AB36AA0C24082A0717
:100F9200AE0025082B3DAF007708803AA0008230D2
:100FA2002002031DD62FD13076020318D92FDA2F53
:100FB200E02F20002F08F7002E08F600EE2F200069
:100FC2002E09A0002F09A100A00A0319A10A2008D6
:100FD200F6002108F700EE2FEE2F0800D73084002C
:100FE20084308500BA308600203087000030FF0050
:100FF200B63083317E238731200085318D2DFF3439
:10100200FF34F634FF34D834FF34A634FF3460346E
:10101200FF340734FF349934FE341834FE348234FA
:10102200FD34D934FC341C34FC344C34FB34683485
:10103200FA347034F9346534F8344734F7341534FB
:10104200F634D034F4347834F3340E34F234903449
:10105200F034FF34EE345C34ED34A634EB34DE3459
:10106200E9340434E8341734E6341934E434093406
:10107200E234E734DF34B434DD346F34DB341A3431
:10108200D934B334D6343C34D434B434D1341C34AB
:10109200CF347334CC34BB34C934F334C6341B3448
:1010A200C4343534C1343F34BE343A34BB342734CB
:1010B200B8340534B534D534B1349734AE344C3405
:1010C200AB34F334A7348E34A4341B34A1349C34AF
:1010D2009D3411349A3479349634D6349234273488
:1010E2008F346D348B34A9348734DA34833400344A
:1010F20080341C347C342F347834393474343934A9
:10110200703431346C342034683407346434E63457
:101112005F34BE345B348F345734583453341C3408
:101122004F34D9344A349034463442344234EF3462
:101132003D34963439343A343534D9343034743415
:101142002C340C342834A134233433341F34C234C5
:101152001A3450341634DC34113466340D34EF341E
:1011620008347834043400340034D034023478340F
:020000040001F9
:04000E00C4FFFFDE4E
:00000001FF
